:020000040800F2
:10000000000002200D9801083DC3000841C300080C
:100010005DC4000861C4000865C400080000000059
:1000200000000000000000000000000069C400089B
:100030006DC400080000000071C40008C179000808
:1000400061980108619801086198010861980108A8
:100050006198010861980108619801086198010898
:100060006198010861980108619801086198010888
:100070006198010861980108619801086198010878
:10008000619801086198010861980108B985000824
:100090006198010861980108619801086198010858
:1000A0006198010861980108619801086198010848
:1000B0006198010861980108619801086198010838
:1000C0006198010861980108619801086198010828
:1000D0006198010861980108619801088180000811
:1000E000619801086198010800000000619801080A
:1000F00061980108619801086198010861980108F8
:1001000061980108619801086198010861980108E7
:1001100061980108619801084DB1000861980108D3
:1001200061980108619801086198010861980108C7
:1001300061980108619801086198010861980108B7
:1001400000000000000000000000000000000000AF
:100150006198010861980108619801086198010897
:100160006198010861980108619801086198010887
:100170006198010861980108619801086198010877
:100180006198010861980108619801086198010867
:100190006198010861980108619801086198010857
:1001A0006198010861980108619801086198010847
:1001B0006198010861980108619801086198010837
:1001C0006198010861980108619801086198010827
:1001D0006198010861980108619801086198010817
:1001E0006198010861980108619801086198010807
:1001F00061980108619801086198010861980108F7
:1002000061980108619801086198010861980108E6
:1002100061980108619801086198010861980108D6
:1002200061980108619801086198010800000000C8
:1002300061980108619801080000000061980108B8
:1002400061980108619801086198010861980108A6
:100250006198010861980108619801086198010896
:100260006198010861980108619801086198010886
:100270006198010861980108619801080000000078
:100280006198010861980108619801080000000068
:08029000000000006198010864
:1002C0000348044B834202D0034B03B118477047E5
:1002D000F0010020F0010020000000000548064B5E
:1002E0001B1AD90F01EBA301491002D0034B03B134
:1002F00018477047F0010020F001002000000000C6
:1003000010B5064C237843B9FFF7DAFF044B13B15D
:100310000448AFF300800123237010BDF0010020DA
:10032000000000006498010808B5044B1BB10449A3
:100330000448AFF30080BDE80840CFE700000000AC
:10034000F4010020649801080CB410B59CB01EABF9
:10035000029106916FF0004104910791084953F80A
:10036000042B0591002402A901931B9401F066FA65
:10037000029B1C701CB0BDE8104002B0704700BF6B
:100380000802FFFF0EB430B59CB06FF000411FAB08
:10039000049107910A4953F8042B02900024069017
:1003A000084D0868019302A905951B9401F046FACF
:1003B000029B1C701CB0BDE8304003B0704700BF0A
:1003C0006C0100200802FFFF38B5124B1D682A6B34
:1003D00004461AB10023C2E9044338BD182004F0D2
:1003E00043F90246286378B101200021C2E90401E3
:1003F000094B0A480A499160C2E900030B23938123
:100400000023C2E9044338BD064B0748462100F0EB
:10041000D9F800BF6C01002034126DE60E33CDAB6D
:10042000ECDE050034F201084CF201081C4B10B55B
:100430001C68226B8AB113691A4954691A4803FB74
:1004400001F100FB0411A3FB0030013341EB00017B
:10045000C2E9043121F0004010BD182004F004F975
:100460000246206388B1114C114B0E48114991602E
:100470009FED097BC2E900430B2393810E4B01469C
:1004800082ED047BC2E9043110BD0C4B0C485221B3
:1004900000F098F8AFF300800100000000000000B9
:1004A0006C0100202DF451582D7F954C0E33CDABAF
:1004B00034126DE6ECDE05002E7F954C34F2010817
:1004C0004CF2010888420ED98B1883420BD900EBFD
:1004D000020C002A6ED0624613F801CD02F801CD5D
:1004E0009942F9D170470F2A0FD8034602F1FF3C19
:1004F000002A5FD00CF1010C013B8C4411F8012B58
:1005000003F8012F6145F9D1704740EA01039B07C9
:1005100051D1A2F1100370B501F1200C23F00F05A9
:1005200001F1100E00F11004AC441B095EF8105CE0
:1005300044F8105C5EF80C5C44F80C5C5EF8085CF7
:1005400044F8085C5EF8045C44F8045C0EF1100E9C
:10055000E64504F11004E9D1013312F00C0F01EB70
:10056000031102F00F0400EB031328D0043C24F025
:1005700003064FEA940C1E441C1F8E465EF8045B73
:1005800044F8045FB442F9D10CF1010402F0030213
:1005900003EB840301EB840102F1FF3C4AB10CF14F
:1005A000010C013B8C4411F8012B03F8012F61452C
:1005B000F9D170BD704702F1FF3C03469AE722462D
:1005C000EAE700BF00B50B4C25681446EE681A46F2
:1005D00085B003460D464CB107490095CDE901149D
:1005E0003046064904F0A0FA02F04AFB04490C46E2
:1005F000F3E700BF6C01002078F2010888F20108DF
:10060000F0B5010808B513460022FFF7DBFF00BF75
:100610002DE9F04F2DED0A8B97B0894600219246C7
:10062000129100220021CDE9041280464946119121
:100630000F4611F8012B2D2A5ED801A050F822F0A8
:100640001B080008F9060008F9060008F90600086A
:10065000F9060008F9060008F9060008F90600087E
:10066000F90600082F0600082F0600082F060008CC
:100670002F0600082F060008F9060008F9060008F2
:10068000F9060008F9060008F9060008F90600084E
:10069000F9060008F9060008F9060008F90600083E
:1006A000F9060008F9060008F9060008F90600082E
:1006B000F9060008F9060008F9060008F90600081E
:1006C0002F060008F9060008F9060008F9060008D8
:1006D000F9060008F9060008F9060008F9060008FE
:1006E000F9060008F9060008F9060008890D000857
:1006F000F90600089D0D000800210791302A00F03E
:100700009A80002308932F2A144640F2DD840023A8
:1007100038461E461D4613E00130082D1190C8BF13
:1007200003EB83030478C6BF02EB4302A2F130035C
:10073000A1F130062F2C05F10105224640F3CC80B3
:1007400006EB8601392C02EB4101E5DDB649099340
:10075000012202F09DFA099B00287DD111990A46D9
:10076000013111915478002D40F05185302C40F02A
:10077000FE840A461046013211921478302CF9D0CA
:10078000C1F101010844A4F13102082A39D8119FAE
:10079000411CA4F130020A910125BE464FF0000C25
:1007A00006EB860602EB460600200EF101021192CE
:1007B0009EF80140A4F13001092900F2BD82DDF864
:1007C00044E001300A460029EFD00128D8BF05F1E6
:1007D000010B40F3508400EB050B0BF1FF3409973C
:1007E00003E07E00AC4200F04584082D06EB86074E
:1007F00005F10105F5DD102DDCBF03EB83035B0084
:10080000F0E7652C40F0CD8200220121CDE90912EC
:100810009446089A024340F09D829FED818BBAF185
:10082000000F01D0CAF80090B0EE480B17B0BDEC35
:100830000A8BBDE8F08F7A7802F0DF02582A00F0C8
:10084000DC83013711973A78302AFAD0002A00F079
:100850006B820123089356E70020CDE90900AC46DE
:10086000652C48D0452C46D04FF0000B002D40F0B1
:100870008F80089B034340F05782099B002BCCD10B
:10088000692C00F0498400F34284492C00F0448430
:100890004E2CC2D1654911A804F0AAFE0028BCD094
:1008A000119B1B78282B00F05185614805F070F9E9
:1008B000B0EE408BBAF1000F02D0119BCAF80030A5
:1008C000079B002BB0D0B1EE488BB0EE480B17B0B1
:1008D000BDEC0A8BBDE8F08F53490993012202F069
:1008E000D7F9099B0028B7D1119A0A90511C119190
:1008F0005478AC465EE7002D8BD0DDF8449009F1CA
:100900000102119299F801402B2C00F020822D2C2D
:1009100000F0158200220B92A4F1300BBBF1090FFD
:1009200000F20582302C119A0AD10132119214780A
:10093000302CFAD0A4F13101082995D8A4F1300B5C
:10094000511C119154782F2C40F3CF838E460C927A
:1009500008E0013111919EF801402F2CA2F1300BDB
:1009600006DD8E460BEB8B02392C04EB4202F0DDE8
:100970000C9A891A082940F3B88344F61F6B0B9A26
:10098000002A3FF473AFCBF1000B002D3FF471AFA1
:1009900007EE906A0A9AB8EE677BABEB0202BCF1F5
:1009A000000F08BFAC46102D09922A46A8BF10229E
:1009B000092D8DED047B0EDD06EE903A1D4B03EB09
:1009C000C20313ED125B0F2DB8EE666BA7EE056B3D
:1009D0008DED046B30DC099B002B00F0E882099B55
:1009E00040F33782162B40F386830999C5F125031E
:1009F0008B4221DB0F4BC5F10F054A1B03EBC505ED
:100A000003EBC20395ED008B93ED007B9DED046B32
:100A100028EE068B28EE078B4CE700BFAFF3008073
:100A20000000000000000000B8F20108C8F2010850
:100A3000F0B50108E89A0108AB1A099A1344002B93
:100A400040F3B58113F00F010AD0C74A02EBC1028F
:100A50009DED046B92ED007B27EE067B8DED047B14
:100A600033F00F0240D0B2F59A7F00F36B83102A67
:100A70004FEA221340F3BB84BC4C9DED047B002065
:100A80002246014613F0010F01F101014FEA630311
:100A900004D092ED006B012027EE067B012B02F1C2
:100AA0000802EFD108B18DED047B059BA3F15473CF
:100AB000059304EBC1049DED046B94ED007BAC4BFE
:100AC00027EE067B17EE902AAA4913408B428DED44
:100AD000047B00F23783A8498B4240F2E083A74CA5
:100AE0004FF0FF33CDE904340023089300962B46E2
:100AF00062463946404605F041F98146002800F03B
:100B000021830A9BCDF83CA0A3EB0B0B099B002B88
:100B1000B4BF5A4600224FF0000B23EAE3739FED67
:100B20008E9B0A920B935C46BFE0991A1F29A5EB96
:100B3000010500F30182012202FA01F30C93002364
:100B40000D932F44089B5544AA4552461F44A8BF05
:100B50002A46BA42A8BF3A46002A03DDAD1ABF1A98
:100B6000AAEB020A0A9B002B00F38C81002D00F3F4
:100B7000A281099B002B00F3D581002F00F3C581D2
:100B8000BAF1000F08DD21465246404605F0DEFA74
:100B90000446002800F0C28112993246404605F012
:100BA0006BFB8346002800F0B9810023C568C36051
:100BB000214605F03FFB0028C0F29483059F00F01A
:100BC0002F832146584605F003FDB0EE007BB4EEBE
:100BD000C70BF1EE10FA00F24C81002D40F0BC8101
:100BE000049B002B40F03382C7F31303002B40F02B
:100BF000E181B7EE007BB4EEC70BF1EE10FA00F125
:100C00000A83B6EE00BB20EE0BBBB1EE4BAB5848EF
:100C1000DFF870C107EA0001614553EC1A2B00F0C0
:100C2000A0810898E0B1B1F1D46F19D8B4EEC9BB76
:100C3000F1EE10FA11D8BCEECBBB1BEE103A012B33
:100C400038BF01230BEE103AB8EE4BBB002D40F03D
:100C50008B82B1EE4B7B53EC172B03F1D660431A1A
:100C6000B0EE480B43EC1A2B0C9105F0C1FBAAEE39
:100C7000008B8DED048B18EE907A0C99089B23B9AC
:100C80003B4B3B40994200F09A811299404605F057
:100C900003F83146404604F0FFFF2146404604F089
:100CA000FBFF5946404604F0F7FFD9F804104046D0
:100CB00004F0B2FF0646002800F03081D9F8102079
:100CC0000232920009F10C010C3003F0F5FA9DEDAF
:100CD000048B14AA13A94046B0EE480B05F018FC8B
:100CE0001290002800F0F0800121404605F0F2F853
:100CF0000446002800F01281139A002AC0F20081F5
:100D00000A9B0B9F02EB030A089B149DD21A2A44EC
:100D10001B4B013A9A42C5F13605FFF606AF012397
:100D20000022CDE90C320CE79FED0D8BC2E5CDF82A
:100D300044904FF0000B99E50122099290E50122C1
:100D40000B9209F10202119299F80240E4E50022A7
:100D50000B92F6E70025D0E50000C0FFFFFFDF4162
:100D60000000000000000000E89A0108D89B01087C
:100D70000000F07F0000A07C0000907CFFFFEF7F70
:100D800002FCFFFF0000E07F00220792791C119116
:100D90007A78002A3FF441AD0F46AFE40122079272
:100DA000F4E7452C3FF430AD0123099361E53FF4AE
:100DB0009BAE5B4213F00F010AD0BD4A02EBC102A9
:100DC0009DED046B92ED007B86EE077B8DED047B41
:100DD0001B113FF489AE1F2B35DC13F0100218BF36
:100DE0006A229DED047B0892B24A0021D80704D5FF
:100DF00092ED006B012127EE067B5B1002F10802E9
:100E0000F4D109B18DED047B089BA3B1DDE90401A8
:100E1000C1F30A52C2F16B03002B0ADD1F2B40F312
:100E2000F0820020342B049040F32B834FF05C734E
:100E300005936A2308939DED047BB5EE407BF1EEAC
:100E400010FA7FF453AE22239FED8F8BC8F8003049
:100E500030E51633FFF6F0AD0A9BA3EB0B0B944B7A
:100E600003EBCB0393ED007B9DED046B86EE078BCC
:100E700020E5B6EE00BB20EE0BBB002D69D1B1EE34
:100E80004BABC4E621461A46404605F0EFF804464F
:100E9000002843D00146129A404605F031F8002858
:100EA0003CD00E901299404604F0F6FE0E9A129233
:100EB000002D7FF75EAE12992A46404605F046F9AE
:100EC000129000287FF455AEDDF83CA09FED708BAA
:100ED0002223C8F800300146404604F0DDFE3146CA
:100EE000404604F0D9FE2146404604F0D5FE49466E
:100EF000404604F0D1FE5946404604F0CDFED9E408
:100F00000B9BDDF828A09F1AFEE631463A46404684
:100F100005F01CF9064600287FF432AEDDF83CA04F
:100F20001298D3E731460B9A404605F09FF80646E3
:100F300000287FF422AEF1E7C2F17F4202F57F0282
:100F400002F57B420121E23201FA02F3CDE90C13F2
:100F5000F7E5B0EE4BAB5AE6B7EE00ABB0EE4ABBEE
:100F600055E6A7F1547305939DED04CBB0EE4C0B01
:100F70000C9105F03DFA5048A0EE0ACB1CEE907A99
:100F80004E4B0C99384098428DED04CB6ED918EE3B
:100F9000902A03F154739A4203D118EE103A0133A8
:100FA000BCD0474B4FF0FF32CDE904236DE69DEDF9
:100FB000048B7FE4BFEE00ABB7EE00BB27E651EC3D
:100FC0001B0B06F0D1FB06F0A1FB049B41EC170BB9
:100FD0001D43C7F313073D433BEE477B27D19FEDEE
:100FE0002E6BB4EEC67BF1EE10FA7FF54EAE9DEDA2
:100FF000048BDDF83CA012986DE70293079B0193E8
:1010000012AB00932F4A13AB11A9404600F084FDA8
:1010100010F00F0504463FF487AE062D40F0AA807D
:10102000013700239FED188B1197079342E49FED42
:101030001C6BB4EEC67BF1EE10FAD8D49FED1A6BA0
:10104000B4EEC67BF1EE10FA7FF71FAECFE7049B3C
:10105000012BAFD1002FADD1DDF83CA0129B18467B
:1010600022239FED098BC8F8003034E707F154774D
:10107000059703E6099F0A9C082D04440A9468DC3E
:101080005D46FFF78DBB00BF0000000000000000C0
:10109000000000000000F07F9535A094FFFFCF3FD7
:1010A0009535A094FFFFDF3F35E5AF350000E03F09
:1010B000E89A0108A89801080000F07FFFFF9F7CD4
:1010C000FFFFEF7F80980108AF490122384601F009
:1010D000DFFD002800F0928000231E4618460A9388
:1010E0001D4609939C46FFF7BDBB44F61F6293451E
:1010F000A8BF934643E4A54B099A03EBC20393EDC3
:10110000008B9DED047B28EE078BFFF7D3BB6E2C85
:101110003FF4C0ABFFF781BB9D4911A804F068FA0A
:1011200000283FF47AAB119B9A49013B11A8119317
:1011300004F05EFA10B9119B013311939FED8E8B71
:10114000FFF7B8BB22239FED8C8BC8F80030FFF768
:10115000B1BBBBF1100FDCBF03EB830301EB430317
:101160005D460020FFF721BBB0EE4B7B73E500200E
:10117000FFF709BB129A3AB1352114A805F06EFAAF
:101180001299404604F088FD013D139B042D00F2A6
:10119000AA81DFE805F0032D2A1F0300149A0492A8
:1011A00003F23342159B23F4801343EA0253059361
:1011B000E40502D543F000430593774A1A409DEDBC
:1011C000048B002A7FF476AB05F0A4FA2223036097
:1011D000FFF770BB4FF0FF326FF00043CDE90423FF
:1011E000E3057FF5E4AE059BE4E76B4B0593F7E77A
:1011F000DDE91412159BCDE90412D9E711990A46CD
:1012000001311191547806460346FFF7AFBAAC4658
:101210000A90FFF7CFBABEEE00ABB6EE00BBF6E425
:10122000DDE90CC3DDF83CA05C49C7F31302002DD7
:1012300039D08A4200F0ED805BBB049B1CEA030FAF
:1012400029D0B0EE480B05F0D3F8089B002B00F036
:101250003181C7F30A53C3F16B03002B40F32E8196
:10126000190501F17F53002203F5401343EC172BBE
:10127000A0EE078B9FED427B474B28EE078B18EEC5
:10128000902A1340002B7FF4B6AE2223C8F800301A
:10129000B1E63B42D5D1089B002BEBD1ABE602F186
:1012A0005473059320E4002A7CD1DDE90401024651
:1012B000002840F0A080089B002B40F0EA80059BAE
:1012C00023F000473F0D3F05A7F580176FEA17533E
:1012D0006FEA035305934FF0FF3304939DED048BA6
:1012E0001298F8E5DDE904120D43DDF83CA0D2D1F7
:1012F000C2F31303002BCED122F000473F0D3F0570
:10130000B7F1D66F3D46C6D9DBF814301BB9DBF810
:101310001030012BBFDD59460122404604F016FF74
:101320002146834604F086FF0028B4DD089B002B8D
:10133000CAD0A5F580156FEA15536FEA03530593DC
:101340004FF0FF3304939DED048B93E7144911A8EC
:1013500014AA04F069F905287FF4A7AA159B43F0A5
:10136000FF4343F4E0030593149B04939DED048B2A
:10137000FFF7A0BAAFF30080000000000000F07F8C
:101380000000000000005039B8F20108E89A010896
:10139000BCF20108C0F201080000F07FFFFF0F005F
:1013A00094980108002B4DD1049B1CEA030F3FF4D5
:1013B00072AFB0EE480B05F01BF8089B002B48D02D
:1013C000C7F30A53C3F16B03002B7ADD1B0503F14E
:1013D0007F51002001F5401141EC170BA0EE478B27
:1013E000B5EE408BF1EE10FA7FF444AF36E6444C94
:1013F0000021FFF75ABB2BBB12EA0C0F3FF44BAF97
:10140000D7E74FF0FF3202FA03F3049A1A4004922E
:101410000FE5089A0499CAB13A4A3A40B2F1D46F3A
:1014200014D8120DC2F16B024FF0FF3000FA02F235
:10143000914219D0002B7FF42CAF11EA0C0F3FF42E
:101440002AAFFEE63B423FF426AFB2E74FF0FF3251
:10145000EEE7129B38EE408BB5EE408BF1EE10FAC2
:1014600018467FF438ADFAE5274B9F4232D0254B22
:101470003B4003F580130593002304939DED048BFB
:1014800009E7C2F14B024FF0FF3393400B40059345
:10149000CFE41C4D3D40B5F1D66F3FF64AAFB5F1F4
:1014A0005C7F3FF6E7AE22239FED118B1298C8F8C0
:1014B000003010E5129838EE008B0CE538EE008B0A
:1014C000D8E638EE408BB5EE408BF1EE10FA7FF4A3
:1014D000D1AEC3E50131CAD122239FED078B12980B
:1014E000C8F80030F7E4002362E600BFAFF30080E5
:1014F0000000000000000000000000000000F07F7D
:10150000D89B01080000F07FFFFFEF7F014BFFF742
:101510007FB800BF0000002010B4054C844613467D
:1015200020685DF8044B0A466146FFF771B800BFBA
:101530006C01002010B4054C054B84460A46206817
:101540005DF8044B6146FFF763B800BF6C010020F3
:101550000000002010B51C4C8446134620680A4643
:101560006146FFF755F8B4EE400BF1EE10FAB0EE1D
:10157000407B17D6B7EEC00BDFED146AB0EEC06A41
:10158000B4EE666AF1EE10FA0BDDB0EEC77B9FEDAC
:101590000C6BB4EE467BF1EE10FA02DC23682222DB
:1015A0001A6010BD17EE903A002B094804DA04F0D7
:1015B000F7FAB1EE400A10BDBDE8104004F0F0BAF1
:1015C000FFFFFFFFFFFFEF7F6C010020FFFF7F7F2A
:1015D000F0B5010810B5224C224B84460A4620681B
:1015E0006146FFF715F8B4EE400BF1EE10FAB0EEDD
:1015F000407B23D6B7EEC00BDFED1B6AB0EEC06AAE
:10160000B4EE666AF1EE10FA0CDDB0EEC75B9FED4A
:10161000126BB4EE465BF1EE10FA03DC2368222273
:101620001A6010BD10EE103A13F0FF4FF9D10F4BB6
:1016300017EE902A1340002BF0D110BD17EE903A10
:10164000002B0B4804DA04F0ABFAB1EE400A10BDEF
:10165000BDE8104004F0A4BAFFFFFFFFFFFFEF7FDB
:101660006C01002000000020FFFF7F7F0000F07F62
:10167000F0B501082DE9F0478F681D46AF420B68B1
:101680000C46164636D8B1F90CC01CF4906F0ED13A
:101690003D46184631462A46FEF714FFA368DF1B75
:1016A0002368A7602B4400202360BDE8F0874A69C7
:1016B000096902EB42025F1A02EBD2726B1C5210F4
:1016C0003B44934292BF914699461A461CF4806F60
:1016D000804611D0114601F06FFE824600B32169A9
:1016E0003A4602F0E9FDA38923F4906343F08003B6
:1016F000A38105E02F46CCE703F05EFA824658B19D
:101700000AEB0703A9EB0707A760C4F810A0C4F809
:10171000149023602F46BCE72169404602F066FE24
:10172000A3890C2243F04003C8F800204FF0FF309B
:10173000A381BAE72DE9F04F9368176883B092460A
:10174000002B74D04FF0000B8B680A6881460C4662
:101750005D4645E0B4F90C3013F4906F2CD0D4E919
:101760000401161A01EB410202EBD272711C5210F5
:101770002944914292BF904688460A465B0539D576
:101780001146484601F018FE019000283DD032462F
:10179000216902F091FDA289019B22F4906242F03E
:1017A0008002A2819819A8EB0606A660C4F81480EE
:1017B00023612060A8462E4632465946FEF782FE37
:1017C000DAF80810A3682268A3EB08033244491B27
:1017D000A3602260CAF8081049B3D7E900B50837FA
:1017E00098461046002DF8D09D421E46B2D2A8461B
:1017F0002E46E1E70146484603F0DEF9034600289D
:10180000D0D12169484602F0F1FDA3890C2243F0B2
:101810004003C9F800204FF0FF30A38100220023CD
:10182000CAF80820CAF8043003B0BDE8F08F0020E1
:101830000023CAF8043003B0BDE8F08F2DE9F04F63
:101840001C468B891D069DB088468146934603D56C
:101850000B69002B00F0F1800023099343F2200371
:10186000ADF829309BF800307D4D03940126002B04
:1018700073D0DA4603E01AF8013F002B75D0252B10
:10188000F9D1BAEB0B0473D19AF80020002A64D086
:1018900000234FF0FF32CDE905230AF1010A04933A
:1018A00007938DF853301A9305E0049A06FA03F370
:1018B0001A430492A2465446052214F8011B2846F6
:1018C00003F046FEA346431B0028EED1049BD80636
:1018D00044BF20228DF8532019079AF8001044BF06
:1018E0002B228DF853202A2950D1039A11680432F3
:1018F000002903927CDB07919AF801102E295BD016
:10190000584C0322204603F023FE38B1049B001BF1
:101910004022824013430BF1010B04931BF8011B7F
:1019200051488DF82810062203F012FE002865D0D9
:101930004E4B002B55D003AA00924D4B424604A9B2
:10194000484601F0ABFA07467A1C06D0099B3B4497
:1019500009939BF80030002B8BD1B8F80C305B0654
:101960007AD409981DB0BDE8F08FBAEB0B04F4D01F
:1019700023465A4641464846FFF77CFE0130ECD0EC
:10198000099B9AF80020234409937FE7A1F13002D4
:10199000092A88BFD346B1D8079B00E001342178DB
:1019A00003EB830302EB4303A1F13002092AF5D9CB
:1019B0002E290793A346A3D19BF801102A2927D1EA
:1019C000039B9BF802101A6805920433002A0BF15E
:1019D00002000393B8BF4FF0FF338346B8BF0593AF
:1019E0008EE7039B073323F0070308330393ADE728
:1019F000494243F00203079104937DE703AA009252
:101A00001B4B424604A9484603F018FA07469BE7D9
:101A1000A1F130020023092A05930BF1010B3FF6D7
:101A20006FAF1BF8011F03EB830302EB4303A1F12C
:101A30003002092AF5D9059362E7402101F0BCFC88
:101A4000C8F80000C8F8100018B14023C8F81430D6
:101A500002E70C23C9F800304FF0FF3082E700BFE7
:101A6000CCF20108D4F20108D8F201089D2E00083A
:101A7000751600082DE9F0410469B4EB611F05DC1F
:101A80000023036100234361BDE8F08100F11405E8
:101A90004E1111F01F0C05EB840E05EB860321D0CF
:101AA00055F8261004339E4521FA0CF1CCF120089C
:101AB0002DD92F461A6802FA08F20A4347F8042B78
:101AC00053F8041B9E4521FA0CF1F3D8A31B9B008D
:101AD000053B9B08013305EB830445F8231079B1DE
:101AE00004340DE09E4588BF00F11002C8D953F8B8
:101AF000041B42F8041F9E45F9D8A41B05EB84047F
:101B0000631B9B10AC420361BCD0BDE8F081416116
:101B10000029B5D02C46E3E72DE9F04F0F6885B0DA
:101B2000CDE90020BA780393302A894640F0EC8151
:101B3000FB1C1A78302A1C4603F10103F9D0E71B7D
:101B4000023FDFF8008318F80230002B00F0EE802F
:101B5000237818F803304FF0000A5546002B00F0A8
:101B60006D81264616F8013F18F80330002BF9D195
:101B7000B3490122304601F08BF8834600284CD04F
:101B80003278002D00F0A181AB1B4FEA830B02F0ED
:101B9000DF02502A35464CD0C9F80060BAF1000F78
:101BA00074D12A1B013A072A514604DD5210072A34
:101BB00001F10101FADC019804F02EF882460028B8
:101BC00000F05F8200F11406A542029666D9002754
:101BD000B9460DE0202F1AD03A4604372B7818F872
:101BE000033003F00F03934049EA0309A54258D09C
:101BF00015F8013D2E2BEDD1A542EBD390490122E2
:101C0000284601F045F80028F0D0202FE4D100222A
:101C100046F8049B04279146E0E7002D00F065811B
:101C2000327802F0DF02AB1B502A4FEA830B3546B5
:101C3000B2D16A782B2A00F046812D2A40F0D38059
:101C40000120AA7818F802104A1E182A05F1020687
:101C500000F2D380727818F80220103901365AB990
:101C60000CE001EB810116F8013F02EB4102A2F109
:101C7000100118F803200AB1192AF2DD00B1494217
:101C80008B44C9F80060BAF1000F8AD0002F0CBF56
:101C900006250025284605B0BDE8F08F029E4FF0CE
:101CA000000946F8049B029BF61AB610CAF81060A9
:101CB000484604F0BDF8009B76011C68361AA6421F
:101CC00074DCC0F204810027009B9A685A45C0F278
:101CD0003B81009B5A685A454BDDA2EB0B0B5C45E0
:101CE00000F38D80DB68022B00F0DD80032B00F019
:101CF0004A81012B40F0DB805C4540F0D880012C0C
:101D000008D0611E504604F0D7FC002800F0CF80B8
:101D1000009B5A6803990A60029A0123CAF810309E
:101D200013600E9B6225C3F800A0B3E7444901226B
:101D3000204600F0ADFF8246002840F085806378A1
:101D400018F80320651C002A00F08080302B2C46F8
:101D500040F0248114F8013F302BFBD018F80330F9
:101D6000B3FA83FA01274FEA5A1A002B7FF4F9AE2F
:101D700064E0012587B1009BDA68022A6ED0032A4D
:101D800070D0012A06D1B90704D5029B1A681743FF
:101D9000FA076AD445F010050E9BC3F800A0039B18
:101DA0002846C3F800B005B0BDE8F08F361B3146B9
:101DB000504604F081FC074678B1711E4A11029B1F
:101DC000012753F8220001F01F0207FA02F2024233
:101DD00003D0B94200F3C980022731465046FFF7CD
:101DE00049FEB34470E718F802104A1E182A05F19C
:101DF00001064FF000007FF62DAF2E46CCE60BF12A
:101E0000FF36002F40F0A980002E40F0A88073110B
:101E1000029A06F01F0652F823200123B340134212
:101E20005946504618BF47F00207FFF723FE009BB4
:101E3000A4EB0B040225D3F804B09BE7264697E6F3
:101E4000B8F20108D09801082378254603F0DF0393
:101E5000502B00F09380C9F8005017E70F9BC3F197
:101E600001030F930F9B002B94D0DAF81070029AA5
:101E70004FEA8709904602EB8706002003E096426E
:101E800042F8040C43D9944652F8041B4B1CF6D07C
:101E90000131022DCCF8001079D014F01F0440F06D
:101EA000A580212578E70F9B002B3FF433AF0198E5
:101EB000514603F0F1FE50250E9A00232846136088
:101EC00005B0BDE8F08F0020BBE6AB465FE6A61B81
:101ED00051460198324604F039F900F11403ABEB96
:101EE000060B824602930027EEE6727818F802107D
:101EF000751C2E4600293FF44AAE16F8012F18F83B
:101F00000230002BF9D13FE6BC1C002719E6DAF8B5
:101F10000820974244DA0AEB87017A1C0120022D3F
:101F2000CAF81020DDF80880486130D0002A6ADC49
:101F30000022CAF810200022CAF81420009B9A68D8
:101F40000BF1010B5A45ACDA0198514603F0A4FE9F
:101F50000E9A0023A32513609CE6012757E731461C
:101F6000504604F0A9FB074651E7B11E504604F065
:101F7000A3FB00283FF430AF03272EE74FF0000B00
:101F80004FF0010A55E60F9B002B90D0C2E6009B54
:101F90001A68013AA24260D02225FDE60127E0E559
:101FA000DAF804100198013103F036FE06460028E5
:101FB0006DD0DAF81020023292000AF10C010C30D8
:101FC00002F07AF95146019803F066FE3269012069
:101FD00006EB8201022D0244326106F114084861C9
:101FE000B246D4D09742BFF658AF9FE7C144C4F180
:101FF000200459F8040C03F01BFFA042BFF651AFB8
:10200000DAF8102092E708EB82040AF11800DAF8F7
:10201000142084424FEA52022BD94546036842EA13
:10202000C37245F8042B50F8042B84424FEA520245
:10203000F4D8A4EB0A0119398908013148F82120A4
:1020400008EB810102B10431A1EB08029210414575
:10205000CAF810207FF472AF6DE7621104F01F041C
:1020600058F822100122A2400A4214BF212522253D
:1020700092E6C8F800200AB14146E4E7CAF8102009
:1020800059E7064B06485246E421FEF79BFA034BFC
:10209000034832468421FEF795FA00BFE0F20108BA
:1020A000F4F201082DE9F047074649480E46354647
:1020B00016F801EB10F80EC01CF0080CF7D1BEF1B9
:1020C0002D0F5AD0BEF12B0F03BF96F800E06446E7
:1020D000AE1C64464BB9BEF1300F5CD00A23DFF86A
:1020E000F4804FF0050A99460AE0102B4AD04FF0D1
:1020F000FF38B8FBF3F803FB08FA6FEA0A0A9946BF
:102100000025284605E02CD009FB00C0012516F863
:1021100001EBAEF1300CBCF1090F06D9AEF1410C68
:10212000BCF1190F0BD8AEF1370C634510DDB5F1DA
:10213000FF3FECD04045E6D94FF0FF35E7E7AEF181
:10214000610CBCF1190F03D8AEF1570C6345EEDCFE
:102150006B1C0BD004B140420AB165B91160BDE8F7
:10216000F087D445D0DD4FF0FF35D0E722233B6028
:102170002846002AF3D0711EF0E796F800E001240B
:10218000AE1CA7E7BEF1300F11D04FF00F0A6FF071
:1021900070489946B4E7337803F0DF03582B0BD02F
:1021A00008234FF0070A6FF060489946A8E7307897
:1021B00000F0DF005828E8D14FF0100996F801E050
:1021C0004FF00F0A02366FF070484B4698E700BF99
:1021D000D19901089999991964E700BF10B4044C8A
:1021E0008446134620685DF8044B0A46614659E769
:1021F0006C01002010B4044C8446134620685DF83E
:10220000044B0A4661464DE76C01002070B50F4B48
:102210000F4DAB42A3EB050607D0B610002455F8CE
:10222000043B01349847A642F9D817F01BFB094D2F
:10223000094B5E1BAB424FEAA60606D0002455F8B8
:10224000043B01349847A642F9D870BD281E020805
:10225000281E0208281E02082C1E0208194B70B501
:102260001D686A6C04460E4632B131462046012391
:10227000BDE8704003F09ABC502002F0F5F9024628
:102280006864D0B100230377C0E90033C0E90233AA
:10229000C0E90433C0E90B33C0E90D33C0E90F33A3
:1022A000C0E91133C0E909338361C3643146204674
:1022B0000123BDE8704003F079BC034B03485B2168
:1022C000FEF780F96C01002034F2010828F30108C0
:1022D00001292DE9F0415BD94FF00108C6460024E1
:1022E0004FF0FF35434608E0A3EB05081C464FF0CE
:1022F000010E04EB0E03994210D900EB050CC75CEC
:102300001CF80E60B742EFD332D04FF001082546DB
:10231000C646444404EB0E039942EED80127C2F8A6
:102320000080BE4600244FF0FF363B4607E09F1B6F
:102330001C464FF0010E04EB0E03994210D900EB3E
:10234000060C10F803801CF80EC0E045EFD817D03B
:1023500001272646BE463C4404EB0E039942EED8C4
:102360000136681C864201D317603046BDE8F08113
:10237000C6450ABF74440EF1010E4FF0010EB8E7D6
:10238000BE450ABF74440EF1010E4FF0010ED2E7B4
:1023900001270026E8E700BF2DE9F04F174687B078
:1023A00005AA80468946384619461C46FFF790FF25
:1023B000059B029382460246F918384600F0B8FAA7
:1023C00000285FD144F400630193029BE31A0646A0
:1023D0000546A9EB04010393CAF1010BA9421BD3E3
:1023E0005645334638BF53469C4223D9581EEA18F7
:1023F0003844424402E001339C421BD012F801CB26
:1024000010F801EFE645F6D09C4213D95D441D4417
:10241000A9424FF00006E3D2019908EB090002F04F
:1024200053FE8144A9EB0401A942D9D2002007B090
:10243000BDE8F08F56450AF1FF336FD205EB0A0273
:10244000424407EB0A00009502E09E4211D0734619
:1024500010F801CD12F8015DAC4503F1FF3EF4D058
:10246000009D013301369E4207D8029B039E1D4406
:10247000B4E701369E42009DF7D908EB050007B08E
:10248000BDE8F08FA4EB0A03534538BF5346013330
:102490000193059344F400630025A9EB0401009324
:1024A0000AF1FF36CAF1010BA94216D3544520D9CF
:1024B00005EB0A024244B819534602E001339C423C
:1024C00017D012F801CB10F801EFE645F6D09C4288
:1024D0000FD95D441D44A942E8D2009908EB0900D8
:1024E00002F0F2FD8144A9EB0401A9429ED35445B8
:1024F000DED8BAF1000FC0D005EB0A00404407EB6C
:102500000A0201E0BB42B8D012F801ED10F801CD8B
:10251000E6451346F6D0019B1D44C5E75346A1E7A7
:102520002DE9F04F9346ADF21C4D05AA80468A4630
:10253000584619461C46FFF7CBFE134681460DF25E
:10254000144243F8044F9342FBD16CB1601E5844CF
:102550000BF1FF3206AD12F8011FA31A013B5B44D9
:10256000824245F82130F6D1059B01934A460BEB98
:102570000301584600F0DCF9002878D144F40063E8
:1025800007460546AAEB040E0293661EAE4511D31C
:1025900008EB050C06AA1CF8063052F82330C3B12C
:1025A0001FB1019A9A4288BFA31A1D44AE454FF04D
:1025B0000007EDD208EB0A00029902F085FD824483
:1025C000AAEB040EAE45E3D200200DF21C4DBDE88F
:1025D000F08F4F453B4638BF4B469E4218D9591E97
:1025E000EA1859444244009502E001339E420ED05D
:1025F00012F8010B11F8015F8542F6D09E42009D52
:1026000006D9C9F101022A44D5180027BEE7009D6A
:102610004F4509F1FF3380F0818005EB0902424408
:102620000BEB09010095CDF80C9002E09F4213D00E
:102630004B4611F8015D12F8010D854203F1FF3997
:10264000F4D0009DDDF80C90013301379F4209D88A
:10265000019B1D44E71A99E701379F42009DDDF871
:102660000C90F5D960460DF21C4DBDE8F08FA4EB3F
:1026700009034B4538BF4B4601330193059344F49E
:1026800000630025AAEB040E0093661EAE4509D335
:1026900008EB050006AA835D52F823306BB11D4498
:1026A000AE45F5D208EB0A00009902F00DFD824418
:1026B000AAEB040EAE45EBD286E7B14517D209F17D
:1026C000FF3105EB0902594442444B4602E0013315
:1026D000B3420CD012F8017B11F801CFBC45F6D003
:1026E0009E4204D9C9F101022A44D518CEE7B9F1B6
:1026F000000F3FF46AAF05EB090141440BEB0902FF
:1027000002E05B453FF461AF12F801CD11F8017DA5
:10271000BC451346F5D0019B1D44C1E74B4694E7E9
:102720002DE9F0410D46097890B00446002954D0B7
:102730006A78002A00F08280AB78002B51D0E878CC
:102740002E68002800F081802B79002B56D0284677
:1027500002F076FA064640F40071204602F0B4FC1E
:1027600086425AD8FE2E00F28880801B271840220D
:10277000711C684600F08AF87EB16A1E5FFA86FC1A
:10278000901912F8013F03F03F0340336B44A91A3C
:102790006144904203F8401CF3D1013CA35D03F077
:1027A0003F0340336B4413F8403C1C44A74203D220
:1027B00038E04444A74235D314F806C00CF03F0C6F
:1027C0000CF140030DEB030C3246294620461CF861
:1027D000408C00F0ADF80028EBD1204610B0BDE8E9
:1027E000F081007842EA0142B8B140EA03439A42DC
:1027F000214614F8010FF7D14C1EEEE7227862B1A2
:1028000031BA01E08B421ED042EA0323204614F87D
:10281000012F002AF6D18B4215D00024204610B09B
:10282000BDE8F081BB5DB819002BF6D04FF4006114
:1028300002F04AFC0744A742AFD2EEE710B0BDE871
:10284000F04103F07FBFC41EC7E7120442EA0162F1
:10285000217842EA03230029DFD0024601E0002963
:10286000DBD041EA0200B3EB002F25464FEA0022FD
:1028700014F8011FF3D1AC1EAFE7014633462A46D8
:10288000204610B0BDE8F0414AE600BF830730B5EE
:1028900047D0541E002A3ED0CAB2034601E0013C94
:1028A00039D303F8012B9D07F9D1032C2CD9CDB2D4
:1028B00005EB05250F2C05EB054535D9A4F11002D4
:1028C00022F00F0C03F1100EE6444FEA121C1A46D8
:1028D000C2E90055C2E9025510327245F8D10CF137
:1028E000010214F00C0F03EB021204F00F0C13D0D2
:1028F000ACF1040323F003030433134442F8045BF4
:102900009342FBD10CF003042CB1C9B21C4403F870
:10291000011BA342FBD130BD64461346002CF4D109
:10292000F9E703461446C0E71A46A446E0E700BFAD
:10293000032A30B415D941EA0004A40784460B46A3
:1029400004D0541E0FE0043A032A08D91946604601
:1029500053F8044B5CF8045BA542F4D0F1E7604601
:102960001946541E7AB1431E0139021901E09A42F8
:1029700009D013F8010F11F801CF6045F7D0A0EB93
:102980000C0030BC7047002030BC704700000000D5
:102990000000000000000000000000000000000037
:1029A00002780B78012A28BF9A4240F0D8806DE95E
:1029B000044540EA0104CDE902676FF0000C4FEADC
:1029C00044721AB380EA010414F0070F6BD100F0CF
:1029D000070420F0070004F0030521F007014FEA87
:1029E000C505F0E8042314F0040FF1E804670CFABD
:1029F00005F462EA040266EA04060BD063EA040303
:102A0000624667EA0407664604E000BFF0E8042374
:102A1000F1E8046782FA4CF582EA0604A4FA8CF421
:102A20006CBB83FA4CF583EA0705A5FA8CF595B9DA
:102A300050E9022351E9026782FA4CF582EA060462
:102A4000A4FA8CF483FA4CF583EA0705A5FA8CF511
:102A50002543DBD09CB92DBAB5FA85F424F00704E0
:102A600027FA04F1DDE9026723FA04F303F0FF001B
:102A700001F0FF01FDE80445A0EB0100704724BA16
:102A8000B4FA84F424F0070426FA04F1DDE90267BD
:102A900022FA04F202F0FF0001F0FF01FDE8044514
:102AA000A0EB0100704714F0030F3CD110F00304B9
:102AB00028D150F8082B51F8083B82FA4CF582EAED
:102AC0000305A5FA8CF55DB950F8042C51F8043CC7
:102AD00082FA4CF582EA0305A5FA8CF5002DE8D0C0
:102AE0002DBAB5FA85F424F0070423FA04F122FA8A
:102AF00004F202F0FF0001F0FF01FDE80445A0EB45
:102B0000010070474FEAC40420F0030050F8082B7E
:102B100021F0030151F8083B0CFA04F462EA0402C4
:102B200063EA0403C9E710F003041DD0A1EB04011C
:102B300020F00300E40750F8042B06D012D28B7863
:102B40005FFAA2F4E41A06D12BB1CB785FFAB2F4A3
:102B5000E41A00D133B920465DF8104B7047A2EB60
:102B60000300704701F1040150F8042BCC0721F059
:102B7000030151F8043B48D824D222F07F4482FA62
:102B80004CF594EA1325A5FA8CF50AD165B951F8EC
:102B9000043B84EA0204B4EB036F0ED150F8042B1B
:102BA000EBE74FEA132355E035F07F454DD1087828
:102BB000FDE80445C0F1000070474FEA126203F0DF
:102BC000FF0347E002EA1C4482FA4CF594EA1345FD
:102BD000A5FA8CF50AD165B951F8043B84EA0204E0
:102BE000B4EB034F0CD150F8042BEBE74FEA13433F
:102BF00030E015EA1C4528D10B884FEA124229E043
:102C00004FEA124203EA1C4324E002F0FF0482FA76
:102C10004CF594EA1365A5FA8CF50AD165B951F81B
:102C2000043B84EA0204B4EB032F09D150F8042BCF
:102C3000EBE74FEA13630DE015F0FF0F05D10B68CA
:102C40004FEA122223F07F4304E04FF00000FDE83A
:102C50000445704712BA1BBA82FA4CF482EA0304A4
:102C6000A4FA8CF5B5FA85F402FA04F203FA04F337
:102C70004FEA1260FDE80445A0EB1360704700BF07
:102C800008B5062002F03CFB012004F0AFFB00BFBA
:102C9000002A3ED030B584460446084380070B46E0
:102CA0002ED1032A07D82BE0043A25D01EF0803F0E
:102CB00022D1032A22D92068194653F8045BA0F1D7
:102CC000013EA842A4462EEA000E04F10404EBD013
:102CD0009CF800000C7884421DD1E64668B11EF8CD
:102CE000010F11F8014FA2EB0E03A04203F1FF33D5
:102CF00011D11CEB0303F1D1002030BDA4461946CD
:102D00009CF800000C78A04205D1012AF4D0E646D8
:102D1000E4E710467047001B30BD00BF0000000014
:102D2000F0B52DED028BB0EE408B85B0174618EE56
:102D3000902A0D9E0C9D002AB6BF2D220022B1EED6
:102D4000408B652E0C461A7030D032DC452E2DD0CB
:102D5000462E4AD1032103AB019302AB00932246D6
:102D60002B46B0EE480B00F03DFC26F02006462E28
:102D700000EB040C04D10378302B2DD02C68A44434
:102D8000B5EE408BF1EE10FA2DD0039B9C4506D991
:102D900030215A1C03921970039B6345F9D30E9A94
:102DA0001B1A136005B0BDEC028BF0BD013402218B
:102DB000D1E7662ECED0B0EE480B03AB019302AB49
:102DC00000930A462B46022100F00CFC672ECCD162
:102DD000FB0719D4039BE2E7B5EE408BF1EE10FA46
:102DE00015D12B689C446346D9E703AB019302AB32
:102DF00000930A462B460221B0EE480B00F0F2FB8E
:102E0000472EB2D1FB07E5D500EB040CB8E7C4F1BF
:102E100001042C60B3E700BF70B50029BABF494276
:102E20002D232B23092982B0027043702BDD0DF175
:102E30000704194DA446A5FB0123DB0803EB83021D
:102E4000A1EB42028E463032BEF1630F66460CF8AB
:102E5000012C19460CF1FF3CEDDCB31E3031A342CE
:102E60000CF8011C00F102050AD2421C13F8011BE8
:102E700002F8011FA342F9D10DF109039B1B1D4468
:102E8000281A02B070BD30231944051D8370C1702B
:102E9000281A02B070BD00BFCDCCCCCC2DE9F04FCC
:102EA0008DB00C46DDF858A016461F46054601F0C9
:102EB00005FBD0F80090484601F0C2FE00230A93BB
:102EC000DAF800300690073323F0070393ED000B88
:102ED0009FEDA77BB0EEC06B0833B4EE476BF1EE0D
:102EE00010FA226894F81880CAF8003084ED120BAA
:102EF0006ADCB4EE400BF1EE10FA80F121826168D9
:102F00004B1C42F4806208F0DF0A30D0BAF1470F60
:102F100000F011810023226003930AAB029309ABF6
:102F20000093CDF804800DF123032846FFF7F8FE47
:102F30000590B8F1650F099935D9B8F1660F00F021
:102F400021810A9B8B4240F328810029D4BFC1F123
:102F50000202012213442361A1654FF0000A9DF88B
:102F60002330002B46D02D2384F8433042E0062145
:102F700000232260CDF80480616003930AAB0293C2
:102F800009AB009328460DF12303FFF7C9FEBAF100
:102F9000470F0590CDD10999C81C80F2E280A8F1B5
:102FA00002085FFA88F80139424604F1500009919D
:102FB000FFF732FF0A9A1318012A8246236140F371
:102FC000328101332361CAE7B5EEC00BF1EE10FA8E
:102FD00002D52D2384F8433022F004022260664B90
:102FE000664AB8F1470F98BF1A460323059223613A
:102FF0004FF0000A009733460BAA2146284601F0FD
:103000008BFE013023D0236858052BD4059A236901
:1030100031462846B847013019D02268E0680B9B3A
:10302000920719D5984217DD4FF0000804F11909ED
:1030300004E0E0680B9BC21A42450DDD01234A46BD
:1030400031462846B847013008F10108F1D14FF068
:10305000FF300DB0BDE8F08F9842B8BF18460DB0F4
:10306000BDE8F08FB8F1650F32D994ED127BB5EE63
:10307000407BF1EE10FA40F09880414A012331463E
:103080002846B8470130E2D0DDE9093A534502DB72
:103090002268D107C2D5069B4A4631462846B84722
:1030A0000130D4D0BAF1010FB7DD0AF1FF3A4FF089
:1030B000000904F11A0801E0D145AED001234246CF
:1030C00031462846B847013009F10109F4D1BEE77D
:1030D000DDF82880B8F1010F40F39680059A0123AE
:1030E00031462846B8470130B1D0069B4A463146A2
:1030F0002846B8470130AAD094ED127BB5EE407B4C
:10310000F1EE10FA08F1FF3B40F09280B8F1010FA8
:1031100040F385804FF0000904F11A0801E0D94519
:103120007DD00123424631462846B847013009F197
:103130000109F4D18BE709B9012161600023226004
:1031400003930AAB029309AB0093CDF804800DF111
:1031500023032846FFF7E4FD09990590C81CFFF6F4
:103160001EAF636899423FF71AAF4FF06708E8E671
:10317000FFFFFFFFFFFFEF7F58F301085CF301083B
:10318000B8E701080029636856DD2161002B00F0D3
:10319000858001330B442361DEE623682161DB0770
:1031A0007FF5DAAE4B1C2361D6E6099B002B4ADD86
:1031B0000A9BD4F858B007935B45A8BF5B46002B29
:1031C000984608DD059A31462846B84701303FF455
:1031D0003EAFD4F858B028EAE87293456BDD4FF063
:1031E000000A04F11A08934604E0A36DA3EB0B0256
:1031F00052455FDD0123424631462846B84701303B
:103200000AF1010AF1D122E7D9073FF567AF059A24
:10321000012331462846B84701303FF418AF5346E2
:1032200004F15002F4E62268D2077FF598AEC8E6B2
:10323000059A5B460132ECE7002B34D12268D207B5
:1032400031D4012387E6474A012331462846B8474F
:1032500001303FF4FCAEDDE9093A5AEA030324D019
:10326000069B4A4631462846B84701303FF4EFAE48
:10327000099B002B72DA4FF0000904F11A0803E0F1
:10328000099B5B424B4569DD012342463146284696
:10329000B847013009F10109F2D1D8E62268D00718
:1032A0007FF55AAE75E7023355E62268D3077FF5FE
:1032B000B5AED5E79B46099B079A9A4202DC226885
:1032C000D00708D5069B4A4631462846B847013004
:1032D0003FF4BDAE099B079AA2EB0B0AD31A9A459D
:1032E000A8BF9A46BAF1000F0CDD059B5B441A4655
:1032F000314653462846B84701303FF4A8AE099BF3
:10330000079AD31A2AEAEA7A53457FF786AEDDF8A0
:103310001CB04FF0000904F11A0807E0099BABEB61
:103320000303A3EB0A034B457FF777AE0123424625
:1033300031462846B847013009F10109EED186E649
:1033400010EE903A002BB8BF2D2322F00402B8BF34
:1033500084F843302260044B044A42E6059A5346FF
:1033600056E600BFB8E7010860F3010864F30108FE
:1033700070B5104E336805460C46B3B12146284659
:1033800003F0CEF9431C0CD0C41C24F00304A0426B
:1033900005D0211A284603F0C3F9013001D0204698
:1033A00070BD4FF0FF34204670BD194603F0B8F9E8
:1033B0003060E3E70C0200202DE9F843CD1C25F036
:1033C000030508350C2D38BF0C25002D064618DBEB
:1033D000A94216D8DFF8DC8001F072FED8F804208C
:1033E000A2B1144603E0636822467BB11C46236801
:1033F0005B1BF8D40B2B1FD89442636854D05360E6
:103400000CE00C2333600020BDE8F88329463046E9
:10341000FFF7AEFF431C044619D00560304601F0AB
:1034200051FE04F10B00231D20F00700C21A1CBF3F
:103430001B1AA350BDE8F88361199442256014BF9C
:103440005160C8F80410635163684B60E6E7D8F830
:1034500004701FB33C467F68002FFBD123683946B8
:10346000304604EB030903F05BF9814516D123686C
:10347000ED1A29463046FFF77BFF01300ED0236856
:10348000D8F804202B442360536883B1A34203D0AF
:103490001A465B689C42FBD10023B0E70C233360E3
:1034A000304601F00FFEAEE7C8F80430B6E7C8F8C2
:1034B0000470B3E70C0200202DE9F04F03690C699A
:1034C000A34283B0C0F28A80013C01F1140500F1EF
:1034D000140855F8243058F8242001339A428E46B7
:1034E00081464FEA840105EB840708EB840AB2FBAE
:1034F000F3F63AD3CDE900150022AC464046134618
:103500005CF8041B05681FFA81FB06FB0B22090C03
:103510004FEA124B06FB01BB92B2A9B2891A1944B9
:103520001FFA8BF3C3EB214303EB154389B241EA46
:103530000341674540F8041B4FEA1B424FEA23430F
:10354000DED2DDE9001558F8013073B9AAF1040A9A
:10355000D04504D307E0D04504F1FF3403D25AF834
:103560000439002BF7D0C9F810407146484602F0E4
:1035700061FE00282EDB4146002255F8040BD1F8ED
:1035800000C01FFA80FE1FFA8CF3A3EB0E03134456
:10359000020CC2EB234202EB1C429BB243EA024301
:1035A000AF4241F8043B4FEA2242E6D258F82420C9
:1035B00008EB84036AB9043B434504D807E0984507
:1035C00004F1FF3403D253F80429002AF7D0C9F8D4
:1035D00010400136304603B0BDE8F08F002003B044
:1035E000BDE8F08F2DE9F04F2DED028BC56991B04C
:1035F0008DED040B57EC106B044602919046069338
:10360000002D00F02383296849B16A684A600123CC
:1036100093408B6002F040FBE36900221A603D1E7C
:103620001C9AB4BF0123002313606F4BBCBF25F06D
:1036300000450595AB4300F09D809DED048BB5EEF4
:10364000408BF1EE10FA0FD1069A012313601D9BF7
:1036500013B11D9A654B1360654B0393039811B02A
:10366000BDEC028BBDE8F08F0FA90EAA2046B0EE8C
:10367000480B02F04DFF290D834640F09280DDE9B2
:103680000E01014401F23243202B40F30F83C3F1BA
:1036900040039D4001F2124326FA03F32B4307EE49
:1036A000103AB8EE477B012317EE905A0A9301397E
:1036B00053EC172BA5F1F8739FED453B9FED467B2F
:1036C0009FED475B06EE901A43EC122BB8EEE64BEB
:1036D000B7EE086B32EE466BA6EE037BA4EE057BDD
:1036E000FDEEC76BB5EEC07BF1EE10FA16EE905A08
:1036F00008D5B8EEE66BB4EE476BF1EE10FA18BFE2
:1037000005F1FF35401A162D00F1FF3700F2478111
:10371000384B03EBC50393ED007BB4EEC78BF1EEA2
:1037200010FA6DD50023002F05F1FF350B93C0F281
:103730003B8100230793002D68DA079B09955B1BEB
:103740000793029B092BC5F100094FF0000564D8CF
:10375000052BC5BF043B0293012300230193029B69
:10376000023B032B00F27A85DFE813F0F403F10348
:10377000E703CA03069AC5F3130542F20F733543F4
:1037800013601ED11D9B002B00F05D851A4B039327
:1037900008331D9A0398136011B0BDEC028BBDE88D
:1037A000F08F18EE905A0023C5F313050A9353ECDB
:1037B000182B45F07F530E98A1F2FF3143F44013CC
:1037C0007AE71D9B002B40F07A830C4B039345E76F
:1037D00061436F63A787D23FB3C8608B288AC63F17
:1037E000FB799F501344D33F0000F07FB9E70108F5
:1037F000B8E70108E89A010874F3010880F30108AA
:10380000002840F3F58300230B930793029B09954F
:10381000092B2F444FF000099AD901230022CDE94A
:10382000013208934FF0FF3A9046E369CDF830A09B
:1038300000215960204602F0EFF90390002800F0C3
:103840001685E369039A1A60BAF10E0F00F2D2806E
:10385000019B002B00F0CE800999002940F3CE8314
:10386000914B01F00F0203EBC203CE0593ED007BF9
:103870004FEA211340F18F838C4A92ED086B03F0DD
:103880000F03032188EE064B5BB1884AD80704D5A5
:1038900092ED006B013127EE067B5B1002F108020E
:1038A000F4D184EE075B0B9B3BB1B7EE007BB4EE2B
:1038B000C75BF1EE10FA00F1598407EE901AB8EEEA
:1038C000E76BB1EE0C7BA6EE057B17EE903A51EC60
:1038D000170BA3F15071BAF1000F78D0099E53462F
:1038E000DFF8C4E1039AFDEEC56B41EC140B0EEB5F
:1038F000C30111ED023B16EE901A089830310132E7
:10390000B8EEE67B5FFA81FC35EE477B1146002876
:1039100000F0E683B6EE006B86EE035B039935EEAE
:10392000445BB4EEC75BF1EE10FA81F800C000F31F
:103930001784B7EE002BB2EE044B002017E00130E5
:10394000984257DA27EE047B25EE045BFDEEC76B49
:1039500016EE901AB8EEE63B303137EE437BB4EE0C
:10396000C57BF1EE10FA02F8011B00F1F98332EE8B
:10397000476BB4EEC56BF1EE10FAE0D50398134631
:10398000013602E0834200F01D841A4613F8011D3F
:103990003929F7D00131C9B21970374641E1012305
:1039A000002F0B93BFF6C5AEC0F1010307930027AC
:1039B000C1E607EE901AB1EE0C6BB8EEE77BA5EE10
:1039C000076B16EE903A51EC160BA3F1507141ECD7
:1039D000160BB1EE047B35EE477BB4EEC67BF1EE01
:1039E00010FA00F3FD83B1EE466BB4EEC67BF1EE48
:1039F00010FA1CD40F9B002B5ADB099A0E2A57DCB5
:103A0000294B099AB8F1000F03EBC20393ED006B49
:103A100014DABAF1000F11DC09D1B1EE047B26EE05
:103A2000077BB4EEC78BF1EE10FA00F2D9830023C6
:103A3000039A01931E466FEA080706E2039B591C8E
:103A400088EE067BBDEEC77B0B4617EE102A039966
:103A50003032BAF1010FB8EEC75B0A70A5EE468BA3
:103A600000F0F382B2EE044B012211E088EE067BF7
:103A7000BDEEC77B013217EE101A524501F130013D
:103A8000B8EEC75B03F8011BA5EE468B00F0DD82A4
:103A900028EE048BB5EE408BF1EE10FAE6D1099FCB
:103AA0001A460137BDE000BFE89A0108D89B01081B
:103AB000089A002A40F0E080079BCDF80490002689
:103AC00008960A930A9A5AB1002F09DDBA4207995B
:103AD0001346A8BF3B46C91AD21A07910A92FF1A89
:103AE000B9F1000F0BD0089B1BB1019B002B40F0DC
:103AF000DF8259464A46204602F0B8FA8346012141
:103B0000204602F0E7F90190002D40F0C481029BAD
:103B1000012B40F3D8810120384410F01F0000F041
:103B2000A280C0F12003042B40F3E581079BC0F184
:103B30001C00034407930A9B03440A930744079B12
:103B4000002B05DD59461A46204602F0FFFA83464F
:103B5000002F05DD01993A46204602F0F7FA019060
:103B60000B9B002B40F07C81BAF1000F40F3518198
:103B7000089B002B40F0AE80099F0137DDF80C80D8
:103B8000DDF80490012507E0594600230A2220466B
:103B900002F0A6F80135834649465846FFF78CFCEB
:103BA000AA4500F1300008F8010BEDDCBAF1000F76
:103BB000039BCCBF5546012503EB050A8146002532
:103BC00059460122204602F0C1FA0199834602F0CB
:103BD00031FB002840F3EE81039902E08A4500F0B2
:103BE000028252460AF1FF3A12F8013C392BF5D015
:103BF00001338AF8003001990292204602F04CF815
:103C0000029A76B13DB1B54205D0294620460192CF
:103C100002F042F8019A01923146204602F03CF847
:103C2000019A01925946204602F036F8019A002383
:103C30001370069B1F601D9B002B3FF40FAD039874
:103C40001A6011B0BDEC028BBDE8F08F102000F0BF
:103C50000BFD0246E061002800F0F082C0E900554B
:103C6000C0E90255DBE41C23079A1A4407920A9A1A
:103C70001A440A921F4462E7029A012A40F3A5817E
:103C80000AF1FF329145C0F26F81A9EB0203BAF14C
:103C9000000F019380F2AA82079BA3EB0A030A9309
:103CA0000121204602F016F906460BE7C3F1200376
:103CB00006FA03F307EE103AF3E4314600230A2232
:103CC000204602F00DF80C9B002B064640F3AC8218
:103CD00009979A460A9B002B00F33F81002D40F084
:103CE000CB81B046039D6B1E53440A93049B03F0A3
:103CF00001030B9301995846FFF7DEFB31468246DC
:103D0000584602F097FA019907464246204602F0CB
:103D1000B3FAC3680AF130090146ABBB08905846B4
:103D200002F088FA08990790204601F0B5FF079A3B
:103D3000002A55D1029B1BB90B9B002B00F060821F
:103D4000002F3FDB0A9BAA46AB420AF8019B00F01A
:103D5000AA81594600230A22204601F0C1FF4645A8
:103D6000834631464FF000034FF00A02204631D01F
:103D700001F0B6FF4146064600230A22204601F024
:103D8000AFFF55468046B5E7204601F085FF002F7E
:103D900006DB049B03F00102029B1F433A432AD136
:103DA00059460122204602F0D1F90199834602F0DA
:103DB00041FA002840F3F380B9F1390F00F0068290
:103DC0000AF131092A46099F02F8019B354601375D
:103DD000464610E701F084FF55460646804689E7CF
:103DE000002FC0F25082029B1F430B9B1F4300F029
:103DF0004A82002AA6DDB9F1390F00F0E7812A4690
:103E0000099F09F10103354602F8013B0137464697
:103E1000F1E6029B022B7FF7ABAEBAF1000F40F048
:103E20001281019953460522204601F059FF0146AF
:103E30000190584602F0FEF9002840F30481039AED
:103E4000099F312302F8013B013701990292204674
:103E500001F022FF0137029A002E7FF4DCAEE0E68B
:103E60000199584602F0E6F90028BFF67DAE5946A2
:103E700000230A222046099F01F032FF089B013FE0
:103E80008346002B7FF419AF0C9B002B40F3BF81BE
:103E9000099F9A4672E601462A46204602F0E6F855
:103EA000029B0190012B6BDD0025019A136902EB47
:103EB0008303186901F0BCFFC0F120002CE6BD4B64
:103EC0000393033365E4049B002B7FF424AEDDE908
:103ED0000412C2F31303002B7FF41DAEB64B134044
:103EE00023B1079B0133079301370123002D40F0D5
:103EF0007B811D460FE63FF422AEC0F13C03B3E6E2
:103F000001230893099B434403F1010A5646012EFD
:103F10000C93B8BF0126172ED4F81CC040F2AE8116
:103F2000012204235B0003F11400B042114602F1A8
:103F30000102F7D9CCF804107CE401230893B8F10E
:103F4000000F33DD4646CDF83080C246E3E700235C
:103F50000893D7E700230893F1E731461A46204635
:103F600002F0F4F80646B9E6A2EB09031D44079BEC
:103F70000A935344079300235744914601938FE6D5
:103F8000049B002B90D1DDE90401C1F313030A4621
:103F9000002B89D1A2E70221B0EE484B74E47FF4F4
:103FA00011AF19F0010F7FF407AF0BE74FF00108D5
:103FB000C2463AE403D119F0010F7FF40DAE524628
:103FC0001AF8013D302BFAD015E60A9A002A00F0C3
:103FD000C98003F23343079A0A921F44D318079308
:103FE000CDF804905CE60399312301370B7002E6AB
:103FF000C0F10103002707930B9707E400F0D58079
:10400000099B6E4A5B4203F00F0102EBC10292ED85
:10401000006B1B1128EE066BB0EE465B00F00B81C7
:10402000674A00200221DE0705D592ED007B0131B1
:10403000012025EE075B5B1002F10802F3D1002896
:1040400006FE055B2FE4039AF5E4099F38EE088B22
:104050000137B4EEC68BF1EE10FA3E4608DCB4EE42
:10406000468BF1EE10FA05D117EE102AD20701D5D2
:1040700003988AE41A46D4E57168204601F0CCFD25
:104080000546002800F0E380336902339A0006F108
:104090000C010C3000F010F929460122204602F0F4
:1040A00055F880461EE6099F35460137464687E5A6
:1040B0001A463146204601F0D9FF5A4601460646C7
:1040C000204601F01DFF59460D90204601F0E4FD09
:1040D000019BB9EB03090D9B9B463FF410AD08E52E
:1040E000039824EE033B012B80F800C000F09A8077
:1040F000B2EE044B0398034427EE047BFDEEC76B3E
:1041000016EE900A00F1300C02F801CB9342B8EEA3
:10411000E65B37EE457BEFD1B6EE006B33EE065B28
:10412000B4EEC57BF1EE10FA66DC36EE436BB4EE0E
:10413000C67BF1EE10FA0DD40F9B002BFFF6BCAC42
:10414000099B0E2B3FF7B8AC099B0EEBC30090ED1B
:10415000006B75E41A46013B12F8011C3029F9D0B6
:10416000771C5EE50E9BC3F1360334E7BAF1000F0E
:104170003FF41FAC0C9B002B7FF73CACB2EE044B22
:1041800025EE045B013107EE901A0999B8EEE76B52
:10419000B1EE0C7BA5EE067B17EE902A4E1E51EC7D
:1041A000170BA2F15071FFF79BBB0221B0EE485BE9
:1041B000FFF779BB80F301080000F07FE89A01085F
:1041C000D89B010801363121FFF7E6BBAA46099FBB
:1041D0000399392335460AF8013B0137464600E585
:1041E000002301931E462AE61D465EE6079B0A93BE
:1041F00053445744079353E503980136FFF7C5BB73
:10420000B9F1390FE2D0002F3FF7DAADDAE5029BC2
:10421000022B03DC099FDDF830A0AFE4DDF830A00D
:104220000997FAE5134677E7029B022BF6DCDDF8E7
:1042300030A009974EE50221FFF735BB1A4B1B480A
:10424000EF21FCF7BFF91A4B0393FFF707BA194B9D
:1042500016482A4640F2EF21FCF7B4F9E36900263C
:104260005E603146204601F0D7FC039078B9114BCF
:104270000E48002240F2AF11FCF7A4F90021CCF85F
:104280000410FFF7D7BA002A3FF78AAD9AE5E36931
:10429000039A1A604FF0FF330122B0460C93089244
:1042A0009A46FFF7A7BB00BF34F2010884F3010868
:1042B00074F30108E0F20108844641EA000313F0B8
:1042C00003036DD1403A41D351F8043B40F8043B1D
:1042D00051F8043B40F8043B51F8043B40F8043BE0
:1042E00051F8043B40F8043B51F8043B40F8043BD0
:1042F00051F8043B40F8043B51F8043B40F8043BC0
:1043000051F8043B40F8043B51F8043B40F8043BAF
:1043100051F8043B40F8043B51F8043B40F8043B9F
:1043200051F8043B40F8043B51F8043B40F8043B8F
:1043300051F8043B40F8043B51F8043B40F8043B7F
:1043400051F8043B40F8043B403ABDD2303211D31F
:1043500051F8043B40F8043B51F8043B40F8043B5F
:1043600051F8043B40F8043B51F8043B40F8043B4F
:10437000103AEDD20C3205D351F8043B40F8043B1F
:10438000043AF9D2043208D0D2071CBF11F8013B1D
:1043900000F8013B01D30B8803806046704700BFE3
:1043A000082A13D38B078DD010F003038AD0C3F1F2
:1043B0000403D21ADB071CBF11F8013B00F8013BD4
:1043C00080D331F8023B20F8023B7BE7043AD9D393
:1043D000013A11F8013B00F8013BF9D20B78037068
:1043E0004B7843708B78837060467047002950D0BB
:1043F00038B551F8043C0C1F002BB8BFE418054633
:1044000000F05EFE274A13682BB1A3420CD9216845
:10441000601883422CD0636028461460BDE83840A1
:1044200000F050BEA3420FD81A465B68002BF9D1AA
:1044300011685018844217D02CD36360546028460A
:10444000BDE8384000F03EBE11685018A04214D0BC
:1044500020D8216860188342EFD118685B6808444F
:10446000C4E900035460EAE723680B441360E6E7FD
:1044700018685B6808442060CDE720680144501844
:1044800083421160DBD1D3E900040144C2E9001486
:10449000D5E770470C232B602846BDE8384000F074
:1044A00011BE00BF100200200A22002100F0B8B89F
:1044B0000A23002200F0A6B8F03070470048704789
:1044C000F000002000487047F0000020242B2DE968
:1044D000F84F43D8012B41D0804649481F468E46AD
:1044E00075461EF801BB10F80B4014F00804F7D114
:1044F000BBF12D0F6FD0BBF12B0F08BF9EF800B0A2
:104500006FF0004908BF05F1020E73BBBBF1300F1D
:104510004BD00A273B460025B9FBF7F6284607FB98
:10452000169A05E03AD007FB00C001251EF801BB32
:10453000ABF1300CBCF1090F06D9ABF1410CBCF169
:10454000190F19D8ABF1370C63451EDDB5F1FF3FEC
:10455000ECD08642E6D24FF0FF35E7E702F0DAF81A
:10456000162303600020BDE8F88F102BD3D1BBF1D8
:10457000300F23D01F46CEE7ABF1610CBCF1190F11
:1045800003D8ABF1570C6345E0DC6B1C2BD054B95E
:10459000002AE8D085BB1160BDE8F88FE245C2DA99
:1045A0004FF0FF35C2E74042F2E79EF8003003F0DB
:1045B000DF03582B08D008273B46ACE79EF80000E5
:1045C00000F0DF005828D5D110279EF801B03B46F7
:1045D0000EF1020E9FE79EF800B04FF0004905F182
:1045E000020E012491E72223C8F8003032B10EF107
:1045F000FF3148461160CFE78146F8E74846B2E709
:10460000D199010862E700BF10B4044C84461346F8
:1046100020685DF8044B0A46614657E76C010020AC
:1046200010B4044C8446134620685DF8044B0A46D7
:1046300061464BE76C01002010B4034CD4F8E04015
:10464000A4465DF8044B60470000002049B1FF2AF2
:1046500002D80A70012070478A2303604FF0FF30B0
:1046600070470846704700BF024B01461868FEF7C6
:10467000A3BE00BF6C010020024B01461868FFF783
:10468000B5BE00BF6C0100202DE9F04F0C4687B08D
:10469000896805934B1EB3F5AE7F0646904640F2FF
:1046A000B98127466FF4AE7057F81C3B01EB000E42
:1046B00040F25D11A16043F4F0634FF0000A236003
:1046C00043463D46B046D346CDF810A0CDF808A0ED
:1046D000D146CDF804A00A46CDF80CE01E4633685A
:1046E0001878A0F12B034E2B70D8DFE813F0C90027
:1046F0006F00C90023016F004F00530053005300A7
:104700005300530053005300530053006F006F00D9
:104710006F006F006F006F006F001C016F006F0073
:104720006F000101FA006F006F00EB006F006F0077
:104730006F006F00DC006F006F006F006F006F0094
:10474000D6006F006F006F006F00D0006F006F0029
:104750006F006F006F006F006F001C016F006F0033
:104760006F000101FA006F006F00EB006F006F0037
:104770006F006F00DC006F006F006F006F006F0054
:10478000D6006F006F006F006F00D0002368D9055E
:1047900000F133811BEB0A0318D19A46236823F4F6
:1047A000C0732360D34605F8010BA268013A236960
:1047B000A260013323617368013B002B736040F3F7
:1047C000C380336801333360002A88D133464646BC
:1047D0009846B9F1000F03D0236823F48073236057
:1047E0000BF1FF32012A40F2D0800AF1FF33062B91
:1047F0001AD8BAF1020F40F24181BAF1030F13D077
:10480000AAF1040A5FFA8AFA6FEA0A0AAA44D4F8FB
:104810007C3115F8011D42463046984723695545BD
:1048200003F1FF332361F2D12268D00520D5510571
:1048300000F13581236915F8011C013B65292361CD
:1048400005F1FF3A0DD045290BD0D4F87C31424612
:1048500030469847236915F8021C013B2361A5F1F6
:10486000020A4246D4F87C313046984722685546C1
:1048700012F0100200F0A380002007B0BDE8F08F16
:1048800023681906A2D523F0800323608BE7BAF1D1
:10489000070F9BD14FF0080A85E7BAF1060F95D1B3
:1048A0004FF0070A7FE7BBF1000F40F08180B9F1BC
:1048B000000F00F0B780BAF1010F0DD0BAF1040F6C
:1048C0000AD083E7BAF1000F4BD0BAF1030F03D03F
:1048D000BAF1050F7FF47AAF0AF1010A5FFA8AFA9A
:1048E00061E7BAF1020F7FF471AF4FF0030A5AE7A4
:1048F000236803F4A062B2F5806F05D059057FF5F7
:1049000065AFB9F1000F36D09A0504D4019A049529
:10491000A9EB0202029223F4F06343F4C073236014
:104920004FF000093FE7BBF1010F7FF44FAF4FF0AD
:10493000020B38E723689A057FF548AF23F420730C
:104940002360CDF804902EE7D4F8803131464046FC
:10495000984700287FF43AAFA268002A7FF4BFAEE0
:1049600034E7B9F1000F6AD1236803F4E062B2F5CD
:10497000E06F00F0BA800BF1FF323346012A464661
:104980004FF0000998463FF630AFBD420CD9D4F83D
:104990007C3115F8011D4246304698472369BD42D7
:1049A00003F1FF332361F2D1012007B0BDE8F08F9E
:1049B000BBF1020F7FF47FAF4FF0030BF3E62A70D9
:1049C000236803F4C063B3F5806F3CD0029B002BD7
:1049D00040F08280002239463046FCF797FD23687C
:1049E0009A0740D505990B681A1D0A601B6883ED6C
:1049F000000BE3680133E3603EE723F080032360AC
:104A0000039B09F10109002B3FF4CFAE039B013B4F
:104A10000393CCE627464FF0000E57F81C3B43F4B7
:104A2000F0634AE6236803F4E062B2F5E06F7FF4D6
:104A300042AF23F4F06323604FF0010BB3E633463B
:104A400046469846C8E6019B9945C3D0A3EB0902A8
:104A500004F26F139D4228BF04F5B7752949284613
:104A6000FBF790FCB6E7059802685B0702F10401CA
:104A700025D50160136883ED000BBAE7BD4293D9D9
:104A8000D4F87C3115F8011D424630469847236919
:104A9000BD4203F1FF332361F2D1012085E7BD421E
:104AA00082D9D4F87C3115F8011D4246304698472A
:104AB0002369BD4203F1FF332361F2D174E7059B03
:104AC000B4EE400B1960F1EE10FA156813D6B7EE8C
:104AD000C00B85ED000A8CE7049D0A23691C304653
:104AE000FFF790FD029BC21AB2E723F4F063236044
:104AF0004FF0010A57E6044801F052F885ED000A2C
:104B000077E700BFB0F30108F0B501080CB400B5B9
:104B100083B004AB53F8042B019300F0D5FE03B02F
:104B20005DF804EB02B070470EB410B583B005AB6E
:104B3000064C53F8042B01930146206800F0C4FE94
:104B400003B0BDE8104003B0704700BF6C01002007
:104B500040EA01039B0710B501D1032A17D8844608
:104B600001F1FF3E07E01EF8011F03F8011B541E70
:104B700029B19C4622466346002AF4D110BD9444D4
:104B8000002CFBD003F8011B6345FBD110BD8E4602
:104B90008446DEF80040A4F1013323EA040313F055
:104BA000803F71460EF1040EDAD1043A032A4CF824
:104BB000044BEED87146D3E72DE9F041144641B3DA
:104BC0000AB306460D4601F025FE8442074602D888
:104BD000B4EB500F13D821463046FEF7EDFB80466C
:104BE00050B1BC422246294628BF3A46FFF764FB33
:104BF00029463046FFF7FAFB4046BDE8F081A8465B
:104C00004046BDE8F081A046FFF7F0FB4046BDE816
:104C1000F081BDE8F0411146FEF7CEBB0000000078
:104C20000000000000000000000000000000000084
:104C30000000000000000000000000000000000074
:104C400030B490F800F020F007016FF0000C10F085
:104C5000070491F820F040F048804FF000046FF016
:104C60000700D1E9002391F840F000F1080082FA32
:104C70004CF2A4FA8CF283FA4CF3A2FA8CF34BBBFD
:104C8000D1E9022382FA4CF200F10800A4FA8CF276
:104C900083FA4CF3A2FA8CF3E3B9D1E9042382FA44
:104CA0004CF200F10800A4FA8CF283FA4CF3A2FA59
:104CB0008CF37BB9D1E9062301F1200182FA4CF291
:104CC00000F10800A4FA8CF283FA4CF3A2FA8CF3F8
:104CD000002BC6D0002A04BF04301A4612BAB2FA1A
:104CE00082F200EBD20030BC7047D1E9002304F01F
:104CF0000305C4F100004FEAC50514F0040F91F854
:104D000040F00CFA05F562EA05021CBF63EA0503F0
:104D100062464FF00004AAE72DE9F84F92461F467D
:104D20000A698B68DDF828909A42B8BF1A46CAF81B
:104D3000002091F843300C46064613B10132CAF800
:104D40000020226891065FD5DAF800300233CAF8F5
:104D50000030226812F0060F11461DD1E168994219
:104D6000D8BF114618DD4FF0000804F1190B05E01B
:104D7000E568DAF80030ED1A45450CDD01235A46A6
:104D800039463046C847013008F10108F0D14FF0EC
:104D9000FF30BDE8F88F216894F84330003B18BF1E
:104DA00001238A060AD5E1185A1C302081F84300F5
:104DB000224494F8451082F84310023304F1430270
:104DC00039463046C8470130E1D02368DAF8005050
:104DD000216903F00603042BD4E902201BD08A4288
:104DE00020DD4FF00008521A90441A34002501E0EB
:104DF000454517DA0123224639463046C847013077
:104E000005F10105F4D1C2E712F0060F0DD0003B09
:104E100018BF0123D2E7401B8A4220EAE078E2DC97
:104E20000028E2DC0020BDE8F88FE168DAF8003005
:104E30009942D8BF114696DCAEE700BF2DE9F04796
:104E4000174684B00A7E0C9D0C460646984601F132
:104E5000430C002A35D0A2F15803D9B2202969D8D1
:104E6000202B67D8DFE813F0E600660066006600D6
:104E70006600660066006600660066006600AC00BC
:104E800070006600660066006600700066006600DE
:104E90006600660021008300C60066006600B6005A
:104EA0006600830066006600EC002B68226861697A
:104EB000181D286010061B6802D4520600F1E0801D
:104EC00019600023E1462361CDF800803B4603AA28
:104ED00021463046FFF720FF013020D023694A46A3
:104EE00039463046C047013019D02368E068DDF804
:104EF0000C909B0718D5484516DD002504F1190ACA
:104F000004E0E068A0EB0903AB420DDD012352464B
:104F100039463046C047013005F10105F1D14FF067
:104F2000FF3004B0BDE8F0874845B8BF484604B03C
:104F3000BDE8F08784F84220012004F142090023F3
:104F4000206184F84330BFE72A682368111D1806E2
:104F5000296002D4590600F19580106801460028A6
:104F60006268C0F2938054484FF00A0E15E0206842
:104F70002B6810F0800F53F8041B02D1400648BF85
:104F800089B26F2A4C482B6014BF4FF00A0E4FF0C5
:104F9000080E0023626884F84330002AA26051DBC7
:104FA000236823F00403236000294BD1002A7BD11E
:104FB000E146BEF1080F56D0ACEB0903236183E74D
:104FC0002B681A6804332B6004F1420984F84220EC
:104FD0000120B4E72B686268191D2960D3F800909E
:104FE0000021484600F0B4FA002863D0A0EB090085
:104FF0006060A4E7236843F02003236078222F48F1
:1050000084F845202A6813F0800F52F8041B03D15E
:1050100013F0400F18BF89B22A60DA0744BF43F08B
:105020002003236019B9236823F0200323604FF085
:10503000100EAEE7582384F845301F482368E1E797
:105040002368DBE77546E146B1FBF5F305FB131A70
:105050000A46AA4210F80A1009F8011D1946F3D2AF
:10506000BEF1080FA8D12368DD07A5D562682369C2
:105070009A42A1DC302309F8013C09F1FF399BE792
:1050800019801EE7B2F90010084668E72D20002AB3
:10509000A26084F8430002DB23F0040323600A25A6
:1050A00005484942AE46CEE7037884F8423004F121
:1050B00042097EE7606842E7B8F30108CCF30108D3
:1050C000704700BF704700BF71B1034600EB010C91
:1050D00001E0634506D01A46013311780029F8D162
:1050E000101A7047181A70470846704710B51C4CC4
:1050F000002924689AB02DDB009004904FF40270D0
:10510000ADF80C004FF00000199013D001394FF6A4
:10511000FF7002910591ADF80E0069462046FCF73C
:105120008DFB421C01DA8B232360009B00221A7046
:105130001AB010BD4FF6FF7002910591ADF80E0048
:1051400069462046FCF77AFB431C01DA8B23236077
:105150001AB010BD8B2323604FF0FF30F8E700BF7B
:105160006C01002030B51446002C9BB005462EDBA8
:105170001A464FF40273ADF80C304FF00003009163
:105180000491199313D04FF6FF73013CADF80E3024
:1051900069461E9B02940594FCF750FB421C01DA01
:1051A0008B232B60009B00221A701BB030BD4FF682
:1051B000FF73ADF80E3069461E9B02940594FCF710
:1051C0003DFB431C01DA8B232B601BB030BD8B23CE
:1051D00003604FF0FF30F8E738B5C46B0CB1002026
:1051E00038BD80210546FEF7E7F80246E86330B196
:1051F000031F7C3243F8044F9342FBD1EFE74FF09B
:10520000FF3038BD30B51F2983B0054608D8C36BC1
:105210000C4653B153F8240043F8242003B030BDAA
:10522000162303604FF0FF30F8E780210192FEF76C
:10523000C3F8019AE86303460028F3D0011F00F188
:105240007C05002041F8040FA942FBD1E2E700BF32
:105250001F2938B505461ED8C26B0C466AB152F8F4
:10526000213053B1012B06D0591C10D0002142F837
:10527000241020469847002038BD284601F0E0FF62
:10528000224601462846BDE8384001F0C3BF162338
:105290000360012038BD162303604FF0FF3038BD96
:1052A0001F292AD838B5C36B0C460546A3B153F85D
:1052B000242003EB84034AB1511C0BD0012A07D0F0
:1052C000002520461D609047284638BD012038BD86
:1052D000032038BD022038BD8021FEF76DF803465B
:1052E000E86338B1021F00217C3042F8041F82427B
:1052F000FBD1DCE74FF0FF3038BD4FF0FF30704797
:1053000038B5134B1F281D681DD8EA6B044662B1DF
:1053100052F820304BB1012B05D0591C0FD0002181
:1053200042F820109847002038BD284601F088FF39
:10533000224601462846BDE8384001F06BBF1623DF
:105340002B60012038BD16232B604FF0FF3038BD95
:105350006C010020114B1F2870B51E6808D8F36B34
:1053600004460D464BB153F8240043F8245070BD59
:10537000162333604FF0FF3070BD80213046FEF7BA
:105380001BF80346F0630028F4D0021F00217C3094
:1053900042F8041F8242FBD1E5E700BF6C01002008
:1053A00038B50B4B1D68EC6B0CB1002038BD80216B
:1053B0002846FEF701F8E86338B1031F00F17C02CC
:1053C00043F8044F9342FBD1EFE74FF0FF3038BD75
:1053D0006C01002038B5174B1F281D6826D80446DD
:1053E000E86BA0B150F8243000EB84004BB15A1C9C
:1053F0000BD0012B07D00025056020469847284692
:1054000038BD012038BD032038BD022038BD8021C1
:105410002846FDF7D1FFE86340B1031F00F17C018E
:10542000002243F8042F8B42FBD1DBE74FF0FF3023
:1054300038BD00BF6C01002008B410B5002A9DB033
:10544000044636DB4FF40273ADF814304FF000031E
:105450001B930291069120AB17D0013A4FF6FF71D2
:1054600004920792ADF816101F9A019302A9FCF757
:10547000E5F9421C01DA8B232360029B00221A709B
:105480001DB0BDE8104001B070474FF6FF710492A7
:105490000792ADF816101F9A019302A9FCF7CEF9F6
:1054A000431C01DA8B2323601DB0BDE8104001B01E
:1054B00070478B2303604FF0FF30F5E70CB410B555
:1054C000214B00291C689CB038DB4FF000034FF4DF
:1054D00002721B93ADF81420029006901FAB18D0F7
:1054E00001394FF6FF7204910791ADF8162002A919
:1054F0001E9A01932046FCF7A1F9421C01DA8B2386
:105500002360029B00221A701CB0BDE8104002B05C
:1055100070474FF6FF7204910791ADF8162002A96B
:105520001E9A01932046FCF789F9431C01DA8B236C
:1055300023601CB0BDE8104002B070478B2323608D
:105540004FF0FF30F5E700BF6C01002000000000C5
:1055500001F0FF01102A2BDB10F0070F08D010F824
:10556000013B013A8B422DD010F0070F42B3F6D128
:10557000F0B441EA012141EA014122F007047FF041
:1055800000070023F0E80256083C85EA010586EA98
:10559000010685FA47F5A3FA87F586FA47F6A5FAD4
:1055A00087F68EB9EED1F0BC01F0FF0102F00702E0
:1055B00032B110F8013B013A83EA010313B1F8D18B
:1055C0000020704701387047002D06BF354603386C
:1055D000073815F0010F07D1013015F4807F02BFA5
:1055E000013015F4C03F0130F0BC0138704700BFF6
:1055F00010B40468013409E014F8013BA3F1410C34
:10560000BCF1190F98BF2033934208D111F8012B38
:10561000002AF1D1046001205DF8044B704700209E
:105620005DF8044B704700BF09682DE9F04F4B113E
:1056300002EB830311F01F0B07460CBF1846181D21
:105640003C680CBF1D1F1D46002385B040F8043C7C
:1056500061780134002900F0A8809E469A461E46D3
:105660000B4601461046DFF8889101975A46A84636
:10567000AC46834610E0202B00F28F80564508DDB3
:10568000E04502D9BEF1070F5FDDE34554D34FF08B
:10569000080E14F8013FB3B119F80370002FEAD0D7
:1056A0000EF1010EBEF1080F06F101063ADCDCF83E
:1056B00000301B0107F00F071F43CCF8007014F8EF
:1056C000013F002BE8D15B46084693461A46002E60
:1056D0006BD0C44502D2BEF1070F73DD62454DD2D7
:1056E000111F634653F8044B41F8044FAB42F9D9FC
:1056F000A5EB0C0323F00303691C04330CF1010C2C
:105700008C4588BF04231344002143F8041BAB429B
:10571000FBD950F8043C002B4DD1AA4249D055F892
:10572000043DF8E7E345B4D200234CF8043C4FF0C5
:10573000010EACF1040CBDE70023ACF104084CF8F9
:10574000043CB246C4469E46A3E7CEF10800800062
:10575000CDE9022CDCF800306746C0F1200E84460B
:10576000786800FA0EF21A4320FA0CF33A6047F810
:10577000043FB845F4D8DDE9022C86E750F8043C34
:10578000BBF1000FC7D0CBF1200B4FF0FF3121FA56
:105790000BF10B4040F8043CBDE7084619462929A7
:1057A0005B46019F93461A4609D0042005B0BDE828
:1057B000F08F01232B60052005B0BDE8F08F013488
:1057C0003C6084E7CEF10803DCF800109B00C3F1D5
:1057D000200E66460C46776807FA0EF1214327FA39
:1057E00003F4316046F8044FB045F4D876E700BFC3
:1057F000D09801080EB400B582B003AB816853F8AD
:10580000042B019300F060F802B05DF804EB03B0E4
:10581000704700BF0FB400B5074983B004AB0868F8
:1058200053F8042B8168019300F04EF803B05DF843
:1058300004EB04B0704700BF6C0100209368013B8B
:10584000002B936011DA10B49469A34209DB0A2992
:1058500007D01368581C1060197008465DF8044B97
:1058600070475DF8044B01F0D9BB1368581C1060F9
:1058700019700846704700BF9BB1F8B5134406463F
:105880000F46541E5D1E01E0AC4208D014F8011F03
:105890003A463046FFF7D2FF431CF5D1F8BD002051
:1058A000F8BD0020704700BF936810B514461BB9BF
:1058B00018460023636010BD00F0B4FF0023A3600E
:1058C0000023636010BD00BF2DE9F04FA1B08B46EF
:1058D00091461C46049018B1036A002B00F01C810D
:1058E000BBF80C30180740F19580DBF81030002B26
:1058F00000F090800023CA460D9343F22003ADF8D8
:1059000039309AF80030864E07940127002B79D061
:10591000D14604E019F8013F002B00F08580252BCB
:10592000F8D1B9EB0A0840F0828099F80030002BDA
:1059300068D000234FF0FF32CDE9092309F10109B6
:1059400008930B938DF863301E9305E0089A07FACD
:1059500003F31A430892A1464C46052214F8011B92
:105960003046FFF7F5FDA246831B0028EED1089BC9
:10597000D90644BF20228DF8632099F800101A0739
:1059800044BF2B228DF863202A2966D1079A11681B
:10599000043200290792C0F29A800B9199F8011005
:1059A0002E2970D05F4C03222046FFF7D1FD38B17D
:1059B000089B001B4022824013430AF1010A08930E
:1059C0001AF8011B58488DF838100622FFF7C0FD61
:1059D000002800F08280554B002B69D007AA009266
:1059E000534B04985A4608A9FDF758FA0390039BB5
:1059F000013307D00D9B039A13440D939AF800309E
:105A0000002B85D1BBF80C305B060AD40D9821B071
:105A1000BDE8F08F0498594601F09EFA00283FF443
:105A200069AF4FF0FF30F2E7B9EB0A08EAD00AF1AC
:105A3000FF35CDF81490A946049D01E0A0453ED95C
:105A40004C465A4619F8011F2846FFF7F7FE023464
:105A50000130A4EB0A04F1D1D4E7A1F13002092A04
:105A600088BFCA469CD80B9B00E00134217803EB29
:105A7000830302EB4303A1F13002092AF5D92E2951
:105A80000B93A2468ED19AF801102A292FD1079B99
:105A90009AF802101A6809920433002A0AF10200E7
:105AA0000793B8BF4FF0FF338246B8BF099379E739
:105AB000079B073323F00703083307939AE70D99F1
:105AC000DDF81490414499F800300D912FE74942D8
:105AD00043F002030B91089360E707AA0092144B6E
:105AE00004985A4608A9FFF7A9F903907FE7A1F1A6
:105AF00030020023092A09930AF1010A3FF652AF46
